{
  "_format": "hh-sol-artifact-1",
  "contractName": "ERC20Token",
  "sourceName": "contracts/ERC20Token.sol",
  "abi": [
    {
      "inputs": [
        {
          "internalType": "uint256",
          "name": "initialSupply",
          "type": "uint256"
        },
        {
          "internalType": "string",
          "name": "tokenName",
          "type": "string"
        },
        {
          "internalType": "string",
          "name": "tokenSymbol",
          "type": "string"
        }
      ],
      "stateMutability": "nonpayable",
      "type": "constructor"
    },
    {
      "inputs": [
        {
          "internalType": "address",
          "name": "owner",
          "type": "address"
        }
      ],
      "name": "OwnableInvalidOwner",
      "type": "error"
    },
    {
      "inputs": [
        {
          "internalType": "address",
          "name": "account",
          "type": "address"
        }
      ],
      "name": "OwnableUnauthorizedAccount",
      "type": "error"
    },
    {
      "anonymous": false,
      "inputs": [
        {
          "indexed": true,
          "internalType": "address",
          "name": "owner",
          "type": "address"
        },
        {
          "indexed": true,
          "internalType": "address",
          "name": "spender",
          "type": "address"
        },
        {
          "indexed": false,
          "internalType": "uint256",
          "name": "value",
          "type": "uint256"
        }
      ],
      "name": "Approval",
      "type": "event"
    },
    {
      "anonymous": false,
      "inputs": [
        {
          "indexed": true,
          "internalType": "address",
          "name": "previousOwner",
          "type": "address"
        },
        {
          "indexed": true,
          "internalType": "address",
          "name": "newOwner",
          "type": "address"
        }
      ],
      "name": "OwnershipTransferred",
      "type": "event"
    },
    {
      "anonymous": false,
      "inputs": [
        {
          "indexed": true,
          "internalType": "address",
          "name": "from",
          "type": "address"
        },
        {
          "indexed": true,
          "internalType": "address",
          "name": "to",
          "type": "address"
        },
        {
          "indexed": false,
          "internalType": "uint256",
          "name": "value",
          "type": "uint256"
        }
      ],
      "name": "Transfer",
      "type": "event"
    },
    {
      "inputs": [
        {
          "internalType": "address",
          "name": "",
          "type": "address"
        },
        {
          "internalType": "address",
          "name": "",
          "type": "address"
        }
      ],
      "name": "allowance",
      "outputs": [
        {
          "internalType": "uint256",
          "name": "",
          "type": "uint256"
        }
      ],
      "stateMutability": "view",
      "type": "function"
    },
    {
      "inputs": [
        {
          "internalType": "address",
          "name": "spender",
          "type": "address"
        },
        {
          "internalType": "uint256",
          "name": "value",
          "type": "uint256"
        }
      ],
      "name": "approve",
      "outputs": [
        {
          "internalType": "bool",
          "name": "success",
          "type": "bool"
        }
      ],
      "stateMutability": "nonpayable",
      "type": "function"
    },
    {
      "inputs": [
        {
          "internalType": "address",
          "name": "",
          "type": "address"
        }
      ],
      "name": "balanceOf",
      "outputs": [
        {
          "internalType": "uint256",
          "name": "",
          "type": "uint256"
        }
      ],
      "stateMutability": "view",
      "type": "function"
    },
    {
      "inputs": [],
      "name": "decimals",
      "outputs": [
        {
          "internalType": "uint8",
          "name": "",
          "type": "uint8"
        }
      ],
      "stateMutability": "view",
      "type": "function"
    },
    {
      "inputs": [
        {
          "internalType": "address",
          "name": "owner",
          "type": "address"
        },
        {
          "internalType": "address",
          "name": "spender",
          "type": "address"
        }
      ],
      "name": "getAllowance",
      "outputs": [
        {
          "internalType": "uint256",
          "name": "",
          "type": "uint256"
        }
      ],
      "stateMutability": "view",
      "type": "function"
    },
    {
      "inputs": [],
      "name": "name",
      "outputs": [
        {
          "internalType": "string",
          "name": "",
          "type": "string"
        }
      ],
      "stateMutability": "view",
      "type": "function"
    },
    {
      "inputs": [],
      "name": "owner",
      "outputs": [
        {
          "internalType": "address",
          "name": "",
          "type": "address"
        }
      ],
      "stateMutability": "view",
      "type": "function"
    },
    {
      "inputs": [],
      "name": "renounceOwnership",
      "outputs": [],
      "stateMutability": "nonpayable",
      "type": "function"
    },
    {
      "inputs": [
        {
          "internalType": "string",
          "name": "newName",
          "type": "string"
        }
      ],
      "name": "setName",
      "outputs": [],
      "stateMutability": "nonpayable",
      "type": "function"
    },
    {
      "inputs": [],
      "name": "symbol",
      "outputs": [
        {
          "internalType": "string",
          "name": "",
          "type": "string"
        }
      ],
      "stateMutability": "view",
      "type": "function"
    },
    {
      "inputs": [],
      "name": "totalSupply",
      "outputs": [
        {
          "internalType": "uint256",
          "name": "",
          "type": "uint256"
        }
      ],
      "stateMutability": "view",
      "type": "function"
    },
    {
      "inputs": [
        {
          "internalType": "address",
          "name": "to",
          "type": "address"
        },
        {
          "internalType": "uint256",
          "name": "value",
          "type": "uint256"
        }
      ],
      "name": "transfer",
      "outputs": [
        {
          "internalType": "bool",
          "name": "success",
          "type": "bool"
        }
      ],
      "stateMutability": "nonpayable",
      "type": "function"
    },
    {
      "inputs": [
        {
          "internalType": "address",
          "name": "from",
          "type": "address"
        },
        {
          "internalType": "address",
          "name": "to",
          "type": "address"
        },
        {
          "internalType": "uint256",
          "name": "value",
          "type": "uint256"
        }
      ],
      "name": "transferFrom",
      "outputs": [
        {
          "internalType": "bool",
          "name": "success",
          "type": "bool"
        }
      ],
      "stateMutability": "nonpayable",
      "type": "function"
    },
    {
      "inputs": [
        {
          "internalType": "address",
          "name": "newOwner",
          "type": "address"
        }
      ],
      "name": "transferOwnership",
      "outputs": [],
      "stateMutability": "nonpayable",
      "type": "function"
    }
  ],
  "bytecode": "0x60806040526012600360006101000a81548160ff021916908360ff16021790555034801561002c57600080fd5b50604051611f5c380380611f5c833981810160405281019061004e91906103de565b33600073ffffffffffffffffffffffffffffffffffffffff168173ffffffffffffffffffffffffffffffffffffffff16036100c15760006040517f1e4fbdf70000000000000000000000000000000000000000000000000000000081526004016100b891906104aa565b60405180910390fd5b6100d08161016f60201b60201c565b50600360009054906101000a900460ff1660ff16600a6100f09190610627565b836100fb9190610672565b600481905550600454600560003373ffffffffffffffffffffffffffffffffffffffff1673ffffffffffffffffffffffffffffffffffffffff16815260200190815260200160002081905550816001908161015691906108cb565b50806002908161016691906108cb565b5050505061099d565b60008060009054906101000a900473ffffffffffffffffffffffffffffffffffffffff169050816000806101000a81548173ffffffffffffffffffffffffffffffffffffffff021916908373ffffffffffffffffffffffffffffffffffffffff1602179055508173ffffffffffffffffffffffffffffffffffffffff168173ffffffffffffffffffffffffffffffffffffffff167f8be0079c531659141344cd1fd0a4f28419497f9722a3daafe3b4186f6b6457e060405160405180910390a35050565b6000604051905090565b600080fd5b600080fd5b6000819050919050565b61025a81610247565b811461026557600080fd5b50565b60008151905061027781610251565b92915050565b600080fd5b600080fd5b6000601f19601f8301169050919050565b7f4e487b7100000000000000000000000000000000000000000000000000000000600052604160045260246000fd5b6102d082610287565b810181811067ffffffffffffffff821117156102ef576102ee610298565b5b80604052505050565b6000610302610233565b905061030e82826102c7565b919050565b600067ffffffffffffffff82111561032e5761032d610298565b5b61033782610287565b9050602081019050919050565b60005b83811015610362578082015181840152602081019050610347565b60008484015250505050565b600061038161037c84610313565b6102f8565b90508281526020810184848401111561039d5761039c610282565b5b6103a8848285610344565b509392505050565b600082601f8301126103c5576103c461027d565b5b81516103d584826020860161036e565b91505092915050565b6000806000606084860312156103f7576103f661023d565b5b600061040586828701610268565b935050602084015167ffffffffffffffff81111561042657610425610242565b5b610432868287016103b0565b925050604084015167ffffffffffffffff81111561045357610452610242565b5b61045f868287016103b0565b9150509250925092565b600073ffffffffffffffffffffffffffffffffffffffff82169050919050565b600061049482610469565b9050919050565b6104a481610489565b82525050565b60006020820190506104bf600083018461049b565b92915050565b7f4e487b7100000000000000000000000000000000000000000000000000000000600052601160045260246000fd5b60008160011c9050919050565b6000808291508390505b600185111561054b57808604811115610527576105266104c5565b5b60018516156105365780820291505b8081029050610544856104f4565b945061050b565b94509492505050565b6000826105645760019050610620565b816105725760009050610620565b81600181146105885760028114610592576105c1565b6001915050610620565b60ff8411156105a4576105a36104c5565b5b8360020a9150848211156105bb576105ba6104c5565b5b50610620565b5060208310610133831016604e8410600b84101617156105f65782820a9050838111156105f1576105f06104c5565b5b610620565b6106038484846001610501565b9250905081840481111561061a576106196104c5565b5b81810290505b9392505050565b600061063282610247565b915061063d83610247565b925061066a7fffffffffffffffffffffffffffffffffffffffffffffffffffffffffffffffff8484610554565b905092915050565b600061067d82610247565b915061068883610247565b925082820261069681610247565b915082820484148315176106ad576106ac6104c5565b5b5092915050565b600081519050919050565b7f4e487b7100000000000000000000000000000000000000000000000000000000600052602260045260246000fd5b6000600282049050600182168061070657607f821691505b602082108103610719576107186106bf565b5b50919050565b60008190508160005260206000209050919050565b60006020601f8301049050919050565b600082821b905092915050565b6000600883026107817fffffffffffffffffffffffffffffffffffffffffffffffffffffffffffffffff82610744565b61078b8683610744565b95508019841693508086168417925050509392505050565b6000819050919050565b60006107c86107c36107be84610247565b6107a3565b610247565b9050919050565b6000819050919050565b6107e2836107ad565b6107f66107ee826107cf565b848454610751565b825550505050565b600090565b61080b6107fe565b6108168184846107d9565b505050565b5b8181101561083a5761082f600082610803565b60018101905061081c565b5050565b601f82111561087f576108508161071f565b61085984610734565b81016020851015610868578190505b61087c61087485610734565b83018261081b565b50505b505050565b600082821c905092915050565b60006108a260001984600802610884565b1980831691505092915050565b60006108bb8383610891565b9150826002028217905092915050565b6108d4826106b4565b67ffffffffffffffff8111156108ed576108ec610298565b5b6108f782546106ee565b61090282828561083e565b600060209050601f8311600181146109355760008415610923578287015190505b61092d85826108af565b865550610995565b601f1984166109438661071f565b60005b8281101561096b57848901518255600182019150602085019450602081019050610946565b868310156109885784890151610984601f891682610891565b8355505b6001600288020188555050505b505050505050565b6115b0806109ac6000396000f3fe608060405234801561001057600080fd5b50600436106100ea5760003560e01c8063715018a61161008c578063a9059cbb11610066578063a9059cbb1461024f578063c47f00271461027f578063dd62ed3e1461029b578063f2fde38b146102cb576100ea565b8063715018a6146102095780638da5cb5b1461021357806395d89b4114610231576100ea565b806318160ddd116100c857806318160ddd1461016d57806323b872dd1461018b578063313ce567146101bb57806370a08231146101d9576100ea565b806306fdde03146100ef578063095ea7b31461010d5780630af4187d1461013d575b600080fd5b6100f76102e7565b6040516101049190610d24565b60405180910390f35b61012760048036038101906101229190610dee565b610375565b6040516101349190610e49565b60405180910390f35b61015760048036038101906101529190610e64565b610467565b6040516101649190610eb3565b60405180910390f35b6101756104ee565b6040516101829190610eb3565b60405180910390f35b6101a560048036038101906101a09190610ece565b6104f4565b6040516101b29190610e49565b60405180910390f35b6101c36107e6565b6040516101d09190610f3d565b60405180910390f35b6101f360048036038101906101ee9190610f58565b6107f9565b6040516102009190610eb3565b60405180910390f35b610211610811565b005b61021b610825565b6040516102289190610f94565b60405180910390f35b61023961084e565b6040516102469190610d24565b60405180910390f35b61026960048036038101906102649190610dee565b6108dc565b6040516102769190610e49565b60405180910390f35b610299600480360381019061029491906110e4565b610a7b565b005b6102b560048036038101906102b09190610e64565b610a96565b6040516102c29190610eb3565b60405180910390f35b6102e560048036038101906102e09190610f58565b610abb565b005b600180546102f49061115c565b80601f01602080910402602001604051908101604052809291908181526020018280546103209061115c565b801561036d5780601f106103425761010080835404028352916020019161036d565b820191906000526020600020905b81548152906001019060200180831161035057829003601f168201915b505050505081565b600081600660003373ffffffffffffffffffffffffffffffffffffffff1673ffffffffffffffffffffffffffffffffffffffff16815260200190815260200160002060008573ffffffffffffffffffffffffffffffffffffffff1673ffffffffffffffffffffffffffffffffffffffff168152602001908152602001600020819055508273ffffffffffffffffffffffffffffffffffffffff163373ffffffffffffffffffffffffffffffffffffffff167f8c5be1e5ebec7d5bd14f71427d1e84f3dd0314c0f7b2291e5b200ac8c7c3b925846040516104559190610eb3565b60405180910390a36001905092915050565b6000600660008473ffffffffffffffffffffffffffffffffffffffff1673ffffffffffffffffffffffffffffffffffffffff16815260200190815260200160002060008373ffffffffffffffffffffffffffffffffffffffff1673ffffffffffffffffffffffffffffffffffffffff16815260200190815260200160002054905092915050565b60045481565b600081600560008673ffffffffffffffffffffffffffffffffffffffff1673ffffffffffffffffffffffffffffffffffffffff168152602001908152602001600020541015610578576040517f08c379a000000000000000000000000000000000000000000000000000000000815260040161056f906111d9565b60405180910390fd5b81600660008673ffffffffffffffffffffffffffffffffffffffff1673ffffffffffffffffffffffffffffffffffffffff16815260200190815260200160002060003373ffffffffffffffffffffffffffffffffffffffff1673ffffffffffffffffffffffffffffffffffffffff168152602001908152602001600020541015610637576040517f08c379a000000000000000000000000000000000000000000000000000000000815260040161062e90611245565b60405180910390fd5b81600560008673ffffffffffffffffffffffffffffffffffffffff1673ffffffffffffffffffffffffffffffffffffffff16815260200190815260200160002060008282546106869190611294565b9250508190555081600560008573ffffffffffffffffffffffffffffffffffffffff1673ffffffffffffffffffffffffffffffffffffffff16815260200190815260200160002060008282546106dc91906112c8565b9250508190555081600660008673ffffffffffffffffffffffffffffffffffffffff1673ffffffffffffffffffffffffffffffffffffffff16815260200190815260200160002060003373ffffffffffffffffffffffffffffffffffffffff1673ffffffffffffffffffffffffffffffffffffffff168152602001908152602001600020600082825461076f9190611294565b925050819055508273ffffffffffffffffffffffffffffffffffffffff168473ffffffffffffffffffffffffffffffffffffffff167fddf252ad1be2c89b69c2b068fc378daa952ba7f163c4a11628f55a4df523b3ef846040516107d39190610eb3565b60405180910390a3600190509392505050565b600360009054906101000a900460ff1681565b60056020528060005260406000206000915090505481565b610819610b41565b6108236000610bc8565b565b60008060009054906101000a900473ffffffffffffffffffffffffffffffffffffffff16905090565b6002805461085b9061115c565b80601f01602080910402602001604051908101604052809291908181526020018280546108879061115c565b80156108d45780601f106108a9576101008083540402835291602001916108d4565b820191906000526020600020905b8154815290600101906020018083116108b757829003601f168201915b505050505081565b600081600560003373ffffffffffffffffffffffffffffffffffffffff1673ffffffffffffffffffffffffffffffffffffffff168152602001908152602001600020541015610960576040517f08c379a0000000000000000000000000000000000000000000000000000000008152600401610957906111d9565b60405180910390fd5b81600560003373ffffffffffffffffffffffffffffffffffffffff1673ffffffffffffffffffffffffffffffffffffffff16815260200190815260200160002060008282546109af9190611294565b9250508190555081600560008573ffffffffffffffffffffffffffffffffffffffff1673ffffffffffffffffffffffffffffffffffffffff1681526020019081526020016000206000828254610a0591906112c8565b925050819055508273ffffffffffffffffffffffffffffffffffffffff163373ffffffffffffffffffffffffffffffffffffffff167fddf252ad1be2c89b69c2b068fc378daa952ba7f163c4a11628f55a4df523b3ef84604051610a699190610eb3565b60405180910390a36001905092915050565b610a83610b41565b8060019081610a9291906114a8565b5050565b6006602052816000526040600020602052806000526040600020600091509150505481565b610ac3610b41565b600073ffffffffffffffffffffffffffffffffffffffff168173ffffffffffffffffffffffffffffffffffffffff1603610b355760006040517f1e4fbdf7000000000000000000000000000000000000000000000000000000008152600401610b2c9190610f94565b60405180910390fd5b610b3e81610bc8565b50565b610b49610c8c565b73ffffffffffffffffffffffffffffffffffffffff16610b67610825565b73ffffffffffffffffffffffffffffffffffffffff1614610bc657610b8a610c8c565b6040517f118cdaa7000000000000000000000000000000000000000000000000000000008152600401610bbd9190610f94565b60405180910390fd5b565b60008060009054906101000a900473ffffffffffffffffffffffffffffffffffffffff169050816000806101000a81548173ffffffffffffffffffffffffffffffffffffffff021916908373ffffffffffffffffffffffffffffffffffffffff1602179055508173ffffffffffffffffffffffffffffffffffffffff168173ffffffffffffffffffffffffffffffffffffffff167f8be0079c531659141344cd1fd0a4f28419497f9722a3daafe3b4186f6b6457e060405160405180910390a35050565b600033905090565b600081519050919050565b600082825260208201905092915050565b60005b83811015610cce578082015181840152602081019050610cb3565b60008484015250505050565b6000601f19601f8301169050919050565b6000610cf682610c94565b610d008185610c9f565b9350610d10818560208601610cb0565b610d1981610cda565b840191505092915050565b60006020820190508181036000830152610d3e8184610ceb565b905092915050565b6000604051905090565b600080fd5b600080fd5b600073ffffffffffffffffffffffffffffffffffffffff82169050919050565b6000610d8582610d5a565b9050919050565b610d9581610d7a565b8114610da057600080fd5b50565b600081359050610db281610d8c565b92915050565b6000819050919050565b610dcb81610db8565b8114610dd657600080fd5b50565b600081359050610de881610dc2565b92915050565b60008060408385031215610e0557610e04610d50565b5b6000610e1385828601610da3565b9250506020610e2485828601610dd9565b9150509250929050565b60008115159050919050565b610e4381610e2e565b82525050565b6000602082019050610e5e6000830184610e3a565b92915050565b60008060408385031215610e7b57610e7a610d50565b5b6000610e8985828601610da3565b9250506020610e9a85828601610da3565b9150509250929050565b610ead81610db8565b82525050565b6000602082019050610ec86000830184610ea4565b92915050565b600080600060608486031215610ee757610ee6610d50565b5b6000610ef586828701610da3565b9350506020610f0686828701610da3565b9250506040610f1786828701610dd9565b9150509250925092565b600060ff82169050919050565b610f3781610f21565b82525050565b6000602082019050610f526000830184610f2e565b92915050565b600060208284031215610f6e57610f6d610d50565b5b6000610f7c84828501610da3565b91505092915050565b610f8e81610d7a565b82525050565b6000602082019050610fa96000830184610f85565b92915050565b600080fd5b600080fd5b7f4e487b7100000000000000000000000000000000000000000000000000000000600052604160045260246000fd5b610ff182610cda565b810181811067ffffffffffffffff821117156110105761100f610fb9565b5b80604052505050565b6000611023610d46565b905061102f8282610fe8565b919050565b600067ffffffffffffffff82111561104f5761104e610fb9565b5b61105882610cda565b9050602081019050919050565b82818337600083830152505050565b600061108761108284611034565b611019565b9050828152602081018484840111156110a3576110a2610fb4565b5b6110ae848285611065565b509392505050565b600082601f8301126110cb576110ca610faf565b5b81356110db848260208601611074565b91505092915050565b6000602082840312156110fa576110f9610d50565b5b600082013567ffffffffffffffff81111561111857611117610d55565b5b611124848285016110b6565b91505092915050565b7f4e487b7100000000000000000000000000000000000000000000000000000000600052602260045260246000fd5b6000600282049050600182168061117457607f821691505b6020821081036111875761118661112d565b5b50919050565b7f496e73756666696369656e742062616c616e6365000000000000000000000000600082015250565b60006111c3601483610c9f565b91506111ce8261118d565b602082019050919050565b600060208201905081810360008301526111f2816111b6565b9050919050565b7f416c6c6f77616e63652065786365656465640000000000000000000000000000600082015250565b600061122f601283610c9f565b915061123a826111f9565b602082019050919050565b6000602082019050818103600083015261125e81611222565b9050919050565b7f4e487b7100000000000000000000000000000000000000000000000000000000600052601160045260246000fd5b600061129f82610db8565b91506112aa83610db8565b92508282039050818111156112c2576112c1611265565b5b92915050565b60006112d382610db8565b91506112de83610db8565b92508282019050808211156112f6576112f5611265565b5b92915050565b60008190508160005260206000209050919050565b60006020601f8301049050919050565b600082821b905092915050565b60006008830261135e7fffffffffffffffffffffffffffffffffffffffffffffffffffffffffffffffff82611321565b6113688683611321565b95508019841693508086168417925050509392505050565b6000819050919050565b60006113a56113a061139b84610db8565b611380565b610db8565b9050919050565b6000819050919050565b6113bf8361138a565b6113d36113cb826113ac565b84845461132e565b825550505050565b600090565b6113e86113db565b6113f38184846113b6565b505050565b5b818110156114175761140c6000826113e0565b6001810190506113f9565b5050565b601f82111561145c5761142d816112fc565b61143684611311565b81016020851015611445578190505b61145961145185611311565b8301826113f8565b50505b505050565b600082821c905092915050565b600061147f60001984600802611461565b1980831691505092915050565b6000611498838361146e565b9150826002028217905092915050565b6114b182610c94565b67ffffffffffffffff8111156114ca576114c9610fb9565b5b6114d4825461115c565b6114df82828561141b565b600060209050601f8311600181146115125760008415611500578287015190505b61150a858261148c565b865550611572565b601f198416611520866112fc565b60005b8281101561154857848901518255600182019150602085019450602081019050611523565b868310156115655784890151611561601f89168261146e565b8355505b6001600288020188555050505b50505050505056fea2646970667358221220c76d99278467cf702797b5b9febbdabe8eab8bd4619b0b78747aecce9276801564736f6c634300081b0033",
  "linkReferences": {},
  "deployedLinkReferences": {}
}